{
  "_format": "hh-sol-artifact-1",
  "contractName": "CryptStarter",
  "sourceName": "contracts/CryptStarter.sol",
  "abi": [
    {
      "inputs": [],
      "stateMutability": "nonpayable",
      "type": "constructor"
    },
    {
      "anonymous": false,
      "inputs": [
        {
          "indexed": false,
          "internalType": "uint256",
          "name": "index",
          "type": "uint256"
        },
        {
          "indexed": false,
          "internalType": "address",
          "name": "owner",
          "type": "address"
        },
        {
          "indexed": false,
          "internalType": "string",
          "name": "name",
          "type": "string"
        },
        {
          "indexed": false,
          "internalType": "uint256",
          "name": "target",
          "type": "uint256"
        },
        {
          "indexed": false,
          "internalType": "uint256",
          "name": "deadline",
          "type": "uint256"
        }
      ],
      "name": "CampaignCreated",
      "type": "event"
    },
    {
      "anonymous": false,
      "inputs": [
        {
          "indexed": false,
          "internalType": "uint256",
          "name": "index",
          "type": "uint256"
        },
        {
          "indexed": false,
          "internalType": "address",
          "name": "backer",
          "type": "address"
        },
        {
          "indexed": false,
          "internalType": "uint256",
          "name": "amount",
          "type": "uint256"
        }
      ],
      "name": "CampaignFunded",
      "type": "event"
    },
    {
      "anonymous": false,
      "inputs": [
        {
          "indexed": false,
          "internalType": "uint256",
          "name": "index",
          "type": "uint256"
        },
        {
          "indexed": false,
          "internalType": "address",
          "name": "owner",
          "type": "address"
        },
        {
          "indexed": false,
          "internalType": "uint256",
          "name": "amount",
          "type": "uint256"
        }
      ],
      "name": "CampaignFundsClaimed",
      "type": "event"
    },
    {
      "anonymous": false,
      "inputs": [
        {
          "indexed": false,
          "internalType": "uint256",
          "name": "index",
          "type": "uint256"
        },
        {
          "indexed": false,
          "internalType": "address",
          "name": "backer",
          "type": "address"
        },
        {
          "indexed": false,
          "internalType": "uint256",
          "name": "amount",
          "type": "uint256"
        }
      ],
      "name": "UnsuccessfulCampaignFundsWithdrawn",
      "type": "event"
    },
    {
      "inputs": [
        {
          "internalType": "uint256",
          "name": "",
          "type": "uint256"
        },
        {
          "internalType": "uint256",
          "name": "",
          "type": "uint256"
        }
      ],
      "name": "campaignDonations",
      "outputs": [
        {
          "internalType": "address",
          "name": "backerAddress",
          "type": "address"
        },
        {
          "internalType": "uint256",
          "name": "amount",
          "type": "uint256"
        }
      ],
      "stateMutability": "view",
      "type": "function"
    },
    {
      "inputs": [
        {
          "internalType": "uint256",
          "name": "",
          "type": "uint256"
        },
        {
          "internalType": "address",
          "name": "",
          "type": "address"
        }
      ],
      "name": "campaignDonationsByBackerAddress",
      "outputs": [
        {
          "internalType": "uint256",
          "name": "",
          "type": "uint256"
        }
      ],
      "stateMutability": "view",
      "type": "function"
    },
    {
      "inputs": [
        {
          "internalType": "uint256",
          "name": "",
          "type": "uint256"
        }
      ],
      "name": "campaigns",
      "outputs": [
        {
          "internalType": "uint256",
          "name": "index",
          "type": "uint256"
        },
        {
          "internalType": "address",
          "name": "owner",
          "type": "address"
        },
        {
          "internalType": "string",
          "name": "name",
          "type": "string"
        },
        {
          "internalType": "uint256",
          "name": "target",
          "type": "uint256"
        },
        {
          "internalType": "uint256",
          "name": "deadline",
          "type": "uint256"
        },
        {
          "internalType": "uint256",
          "name": "totalRaised",
          "type": "uint256"
        },
        {
          "internalType": "uint256",
          "name": "totalDonations",
          "type": "uint256"
        },
        {
          "internalType": "enum CryptStarter.CampaignStatus",
          "name": "status",
          "type": "uint8"
        }
      ],
      "stateMutability": "view",
      "type": "function"
    },
    {
      "inputs": [
        {
          "internalType": "bytes",
          "name": "",
          "type": "bytes"
        }
      ],
      "name": "checkUpkeep",
      "outputs": [
        {
          "internalType": "bool",
          "name": "upkeepNeeded",
          "type": "bool"
        },
        {
          "internalType": "bytes",
          "name": "",
          "type": "bytes"
        }
      ],
      "stateMutability": "view",
      "type": "function"
    },
    {
      "inputs": [
        {
          "internalType": "uint256",
          "name": "_index",
          "type": "uint256"
        }
      ],
      "name": "claimSuccessfulCampaignFunds",
      "outputs": [],
      "stateMutability": "nonpayable",
      "type": "function"
    },
    {
      "inputs": [
        {
          "internalType": "string",
          "name": "_name",
          "type": "string"
        },
        {
          "internalType": "uint256",
          "name": "_target",
          "type": "uint256"
        },
        {
          "internalType": "uint256",
          "name": "_deadline",
          "type": "uint256"
        }
      ],
      "name": "createCampaign",
      "outputs": [],
      "stateMutability": "nonpayable",
      "type": "function"
    },
    {
      "inputs": [
        {
          "internalType": "uint256",
          "name": "_index",
          "type": "uint256"
        }
      ],
      "name": "fundCampaign",
      "outputs": [],
      "stateMutability": "payable",
      "type": "function"
    },
    {
      "inputs": [
        {
          "internalType": "uint256",
          "name": "_index",
          "type": "uint256"
        }
      ],
      "name": "getCampaignDonations",
      "outputs": [
        {
          "components": [
            {
              "internalType": "address",
              "name": "backerAddress",
              "type": "address"
            },
            {
              "internalType": "uint256",
              "name": "amount",
              "type": "uint256"
            }
          ],
          "internalType": "struct CryptStarter.Donation[]",
          "name": "",
          "type": "tuple[]"
        }
      ],
      "stateMutability": "view",
      "type": "function"
    },
    {
      "inputs": [],
      "name": "getNumberOfCampaigns",
      "outputs": [
        {
          "internalType": "uint256",
          "name": "",
          "type": "uint256"
        }
      ],
      "stateMutability": "view",
      "type": "function"
    },
    {
      "inputs": [],
      "name": "lastKeeperCheck",
      "outputs": [
        {
          "internalType": "uint256",
          "name": "",
          "type": "uint256"
        }
      ],
      "stateMutability": "view",
      "type": "function"
    },
    {
      "inputs": [
        {
          "internalType": "address",
          "name": "",
          "type": "address"
        }
      ],
      "name": "ownersCampaigns",
      "outputs": [
        {
          "internalType": "uint256",
          "name": "",
          "type": "uint256"
        }
      ],
      "stateMutability": "view",
      "type": "function"
    },
    {
      "inputs": [
        {
          "internalType": "bytes",
          "name": "",
          "type": "bytes"
        }
      ],
      "name": "performUpkeep",
      "outputs": [],
      "stateMutability": "nonpayable",
      "type": "function"
    },
    {
      "inputs": [
        {
          "internalType": "uint256",
          "name": "_index",
          "type": "uint256"
        }
      ],
      "name": "withdrawFundsFromUnsuccessfulCampaign",
      "outputs": [],
      "stateMutability": "nonpayable",
      "type": "function"
    }
  ],
  "bytecode": "0x60806040523480156200001157600080fd5b5062000023426200002f60201b60201c565b60028190555062000131565b600062015180826200004291906200008f565b826200004f9190620000f6565b9050919050565b6000819050919050565b7f4e487b7100000000000000000000000000000000000000000000000000000000600052601260045260246000fd5b60006200009c8262000056565b9150620000a98362000056565b925082620000bc57620000bb62000060565b5b828206905092915050565b7f4e487b7100000000000000000000000000000000000000000000000000000000600052601160045260246000fd5b6000620001038262000056565b9150620001108362000056565b925082821015620001265762000125620000c7565b5b828203905092915050565b61228180620001416000396000f3fe6080604052600436106100c25760003560e01c80636e04ff0d1161007f578063bea9b2c611610059578063bea9b2c614610298578063e4019b4d146102c3578063e4aafc2c146102ec578063ea0f47a414610317576100c2565b80636e04ff0d1461020057806370879ff71461023e57806392bd38bc1461027c576100c2565b8063141961bc146100c757806317d762601461010b5780633020580b146101485780634585e33b1461017157806347e8efd61461019a5780635167642f146101c3575b600080fd5b3480156100d357600080fd5b506100ee60048036038101906100e99190611382565b610354565b60405161010298979695949392919061150f565b60405180910390f35b34801561011757600080fd5b50610132600480360381019061012d91906115c0565b610461565b60405161013f9190611600565b60405180910390f35b34801561015457600080fd5b5061016f600480360381019061016a9190611750565b610486565b005b34801561017d57600080fd5b506101986004803603810190610193919061181f565b6106e6565b005b3480156101a657600080fd5b506101c160048036038101906101bc9190611382565b610800565b005b3480156101cf57600080fd5b506101ea60048036038101906101e59190611382565b610ab7565b6040516101f79190611968565b60405180910390f35b34801561020c57600080fd5b506102276004803603810190610222919061181f565b610bde565b6040516102359291906119fa565b60405180910390f35b34801561024a57600080fd5b5061026560048036038101906102609190611a2a565b610bff565b604051610273929190611a6a565b60405180910390f35b61029660048036038101906102919190611382565b610c60565b005b3480156102a457600080fd5b506102ad610faf565b6040516102ba9190611600565b60405180910390f35b3480156102cf57600080fd5b506102ea60048036038101906102e59190611382565b610fb5565b005b3480156102f857600080fd5b5061030161123c565b60405161030e9190611600565b60405180910390f35b34801561032357600080fd5b5061033e60048036038101906103399190611a93565b611249565b60405161034b9190611600565b60405180910390f35b6003818154811061036457600080fd5b90600052602060002090600802016000915090508060000154908060010160009054906101000a900473ffffffffffffffffffffffffffffffffffffffff16908060020180546103b390611aef565b80601f01602080910402602001604051908101604052809291908181526020018280546103df90611aef565b801561042c5780601f106104015761010080835404028352916020019161042c565b820191906000526020600020905b81548152906001019060200180831161040f57829003601f168201915b5050505050908060030154908060040154908060050154908060060154908060070160009054906101000a900460ff16905088565b6001602052816000526040600020602052806000526040600020600091509150505481565b8062093a8061049442611261565b61049e9190611b50565b11156104df576040517f08c379a00000000000000000000000000000000000000000000000000000000081526004016104d690611c18565b60405180910390fd5b600360405180610100016040528060038054905081526020013373ffffffffffffffffffffffffffffffffffffffff16815260200185815260200184815260200183815260200160008152602001600081526020016000600381111561054857610547611498565b5b81525090806001815401808255809150506001900390600052602060002090600802016000909190919091506000820151816000015560208201518160010160006101000a81548173ffffffffffffffffffffffffffffffffffffffff021916908373ffffffffffffffffffffffffffffffffffffffff16021790555060408201518160020190805190602001906105e1929190611295565b50606082015181600301556080820151816004015560a0820151816005015560c0820151816006015560e08201518160070160006101000a81548160ff0219169083600381111561063557610634611498565b5b021790555050507fdc26653af5b99b2da33e2ad69ee6600d9aeccc82b034501db4338309615ca238600160038054905061066f9190611c38565b33858585604051610684959493929190611c6c565b60405180910390a1600460003373ffffffffffffffffffffffffffffffffffffffff1673ffffffffffffffffffffffffffffffffffffffff16815260200190815260200160002060008154809291906106dc90611cc6565b9190505550505050565b60005b6003805490508110156107f35760006003828154811061070c5761070b611d0f565b5b90600052602060002090600802019050428160040154118061076457506000600381111561073d5761073c611498565b5b8160070160009054906101000a900460ff16600381111561076157610760611498565b5b14155b1561076f57506107e0565b80600301548160050154106107b15760018160070160006101000a81548160ff021916908360038111156107a6576107a5611498565b5b0217905550506107e0565b60028160070160006101000a81548160ff021916908360038111156107d9576107d8611498565b5b0217905550505b80806107eb90611cc6565b9150506106e9565b506107fc611284565b5050565b8060018161080e9190611d48565b6003805490501215610855576040517f08c379a000000000000000000000000000000000000000000000000000000000815260040161084c90611e4e565b60405180910390fd5b816002600381111561086a57610869611498565b5b6003828154811061087e5761087d611d0f565b5b906000526020600020906008020160070160009054906101000a900460ff1660038111156108af576108ae611498565b5b146108ef576040517f08c379a00000000000000000000000000000000000000000000000000000000081526004016108e690611ee0565b60405180910390fd5b8260006001600083815260200190815260200160002060003373ffffffffffffffffffffffffffffffffffffffff1673ffffffffffffffffffffffffffffffffffffffff1681526020019081526020016000205411610983576040517f08c379a000000000000000000000000000000000000000000000000000000000815260040161097a90611f72565b60405180910390fd5b60006001600086815260200190815260200160002060003373ffffffffffffffffffffffffffffffffffffffff1673ffffffffffffffffffffffffffffffffffffffff16815260200190815260200160002054905060006001600087815260200190815260200160002060003373ffffffffffffffffffffffffffffffffffffffff1673ffffffffffffffffffffffffffffffffffffffff168152602001908152602001600020819055503373ffffffffffffffffffffffffffffffffffffffff166108fc829081150290604051600060405180830381858888f19350505050158015610a74573d6000803e3d6000fd5b507fc1bb24b57454ab8167ea9763f3a3b1b5a922b298dd20f681f24ab0a6cf5453d4853383604051610aa893929190611f92565b60405180910390a15050505050565b606081600181610ac79190611d48565b6003805490501215610b0e576040517f08c379a0000000000000000000000000000000000000000000000000000000008152600401610b0590611e4e565b60405180910390fd5b600080848152602001908152602001600020805480602002602001604051908101604052809291908181526020016000905b82821015610bd257838290600052602060002090600202016040518060400160405290816000820160009054906101000a900473ffffffffffffffffffffffffffffffffffffffff1673ffffffffffffffffffffffffffffffffffffffff1673ffffffffffffffffffffffffffffffffffffffff16815260200160018201548152505081526020019060010190610b40565b50505050915050919050565b6000606062015180600254610bf39190611b50565b42101591509250929050565b60006020528160005260406000208181548110610c1b57600080fd5b9060005260206000209060020201600091509150508060000160009054906101000a900473ffffffffffffffffffffffffffffffffffffffff16908060010154905082565b80600181610c6e9190611d48565b6003805490501215610cb5576040517f08c379a0000000000000000000000000000000000000000000000000000000008152600401610cac90611e4e565b60405180910390fd5b8160006003811115610cca57610cc9611498565b5b60038281548110610cde57610cdd611d0f565b5b906000526020600020906008020160070160009054906101000a900460ff166003811115610d0f57610d0e611498565b5b14610d4f576040517f08c379a0000000000000000000000000000000000000000000000000000000008152600401610d4690612015565b60405180910390fd5b823373ffffffffffffffffffffffffffffffffffffffff1660038281548110610d7b57610d7a611d0f565b5b906000526020600020906008020160010160009054906101000a900473ffffffffffffffffffffffffffffffffffffffff1673ffffffffffffffffffffffffffffffffffffffff161415610e04576040517f08c379a0000000000000000000000000000000000000000000000000000000008152600401610dfb906120a7565b60405180910390fd5b600060038581548110610e1a57610e19611d0f565b5b9060005260206000209060080201905060008086815260200190815260200160002060405180604001604052803373ffffffffffffffffffffffffffffffffffffffff16815260200134815250908060018154018082558091505060019003906000526020600020906002020160009091909190915060008201518160000160006101000a81548173ffffffffffffffffffffffffffffffffffffffff021916908373ffffffffffffffffffffffffffffffffffffffff160217905550602082015181600101555050348160050181905550806006016000815480929190610f0190611cc6565b9190505550346001600087815260200190815260200160002060003373ffffffffffffffffffffffffffffffffffffffff1673ffffffffffffffffffffffffffffffffffffffff1681526020019081526020016000206000828254610f669190611b50565b925050819055507f8a488dc8cd2ade9e472d438b05d4ca99d4b6eb64c602e26a33888999bcdc7df3853334604051610fa093929190611f92565b60405180910390a15050505050565b60025481565b80600181610fc39190611d48565b600380549050121561100a576040517f08c379a000000000000000000000000000000000000000000000000000000000815260040161100190611e4e565b60405180910390fd5b813373ffffffffffffffffffffffffffffffffffffffff166003828154811061103657611035611d0f565b5b906000526020600020906008020160010160009054906101000a900473ffffffffffffffffffffffffffffffffffffffff1673ffffffffffffffffffffffffffffffffffffffff16146110be576040517f08c379a00000000000000000000000000000000000000000000000000000000081526004016110b590612139565b60405180910390fd5b82600160038111156110d3576110d2611498565b5b600382815481106110e7576110e6611d0f565b5b906000526020600020906008020160070160009054906101000a900460ff16600381111561111857611117611498565b5b14611158576040517f08c379a000000000000000000000000000000000000000000000000000000000815260040161114f906121cb565b60405180910390fd5b60006003858154811061116e5761116d611d0f565b5b9060005260206000209060080201905060038160070160006101000a81548160ff021916908360038111156111a6576111a5611498565b5b02179055503373ffffffffffffffffffffffffffffffffffffffff166108fc82600501549081150290604051600060405180830381858888f193505050501580156111f5573d6000803e3d6000fd5b507f47e2ae35607c094f924cae99dd155cbc3dc694f2ff24efa6cfa567811860a1a48533836005015460405161122d93929190611f92565b60405180910390a15050505050565b6000600380549050905090565b60046020528060005260406000206000915090505481565b60006201518082611272919061221a565b8261127d9190611c38565b9050919050565b61128d42611261565b600281905550565b8280546112a190611aef565b90600052602060002090601f0160209004810192826112c3576000855561130a565b82601f106112dc57805160ff191683800117855561130a565b8280016001018555821561130a579182015b828111156113095782518255916020019190600101906112ee565b5b509050611317919061131b565b5090565b5b8082111561133457600081600090555060010161131c565b5090565b6000604051905090565b600080fd5b600080fd5b6000819050919050565b61135f8161134c565b811461136a57600080fd5b50565b60008135905061137c81611356565b92915050565b60006020828403121561139857611397611342565b5b60006113a68482850161136d565b91505092915050565b6113b88161134c565b82525050565b600073ffffffffffffffffffffffffffffffffffffffff82169050919050565b60006113e9826113be565b9050919050565b6113f9816113de565b82525050565b600081519050919050565b600082825260208201905092915050565b60005b8381101561143957808201518184015260208101905061141e565b83811115611448576000848401525b50505050565b6000601f19601f8301169050919050565b600061146a826113ff565b611474818561140a565b935061148481856020860161141b565b61148d8161144e565b840191505092915050565b7f4e487b7100000000000000000000000000000000000000000000000000000000600052602160045260246000fd5b600481106114d8576114d7611498565b5b50565b60008190506114e9826114c7565b919050565b60006114f9826114db565b9050919050565b611509816114ee565b82525050565b600061010082019050611525600083018b6113af565b611532602083018a6113f0565b8181036040830152611544818961145f565b905061155360608301886113af565b61156060808301876113af565b61156d60a08301866113af565b61157a60c08301856113af565b61158760e0830184611500565b9998505050505050505050565b61159d816113de565b81146115a857600080fd5b50565b6000813590506115ba81611594565b92915050565b600080604083850312156115d7576115d6611342565b5b60006115e58582860161136d565b92505060206115f6858286016115ab565b9150509250929050565b600060208201905061161560008301846113af565b92915050565b600080fd5b600080fd5b7f4e487b7100000000000000000000000000000000000000000000000000000000600052604160045260246000fd5b61165d8261144e565b810181811067ffffffffffffffff8211171561167c5761167b611625565b5b80604052505050565b600061168f611338565b905061169b8282611654565b919050565b600067ffffffffffffffff8211156116bb576116ba611625565b5b6116c48261144e565b9050602081019050919050565b82818337600083830152505050565b60006116f36116ee846116a0565b611685565b90508281526020810184848401111561170f5761170e611620565b5b61171a8482856116d1565b509392505050565b600082601f8301126117375761173661161b565b5b81356117478482602086016116e0565b91505092915050565b60008060006060848603121561176957611768611342565b5b600084013567ffffffffffffffff81111561178757611786611347565b5b61179386828701611722565b93505060206117a48682870161136d565b92505060406117b58682870161136d565b9150509250925092565b600080fd5b600080fd5b60008083601f8401126117df576117de61161b565b5b8235905067ffffffffffffffff8111156117fc576117fb6117bf565b5b602083019150836001820283011115611818576118176117c4565b5b9250929050565b6000806020838503121561183657611835611342565b5b600083013567ffffffffffffffff81111561185457611853611347565b5b611860858286016117c9565b92509250509250929050565b600081519050919050565b600082825260208201905092915050565b6000819050602082019050919050565b6118a1816113de565b82525050565b6118b08161134c565b82525050565b6040820160008201516118cc6000850182611898565b5060208201516118df60208501826118a7565b50505050565b60006118f183836118b6565b60408301905092915050565b6000602082019050919050565b60006119158261186c565b61191f8185611877565b935061192a83611888565b8060005b8381101561195b57815161194288826118e5565b975061194d836118fd565b92505060018101905061192e565b5085935050505092915050565b60006020820190508181036000830152611982818461190a565b905092915050565b60008115159050919050565b61199f8161198a565b82525050565b600081519050919050565b600082825260208201905092915050565b60006119cc826119a5565b6119d681856119b0565b93506119e681856020860161141b565b6119ef8161144e565b840191505092915050565b6000604082019050611a0f6000830185611996565b8181036020830152611a2181846119c1565b90509392505050565b60008060408385031215611a4157611a40611342565b5b6000611a4f8582860161136d565b9250506020611a608582860161136d565b9150509250929050565b6000604082019050611a7f60008301856113f0565b611a8c60208301846113af565b9392505050565b600060208284031215611aa957611aa8611342565b5b6000611ab7848285016115ab565b91505092915050565b7f4e487b7100000000000000000000000000000000000000000000000000000000600052602260045260246000fd5b60006002820490506001821680611b0757607f821691505b60208210811415611b1b57611b1a611ac0565b5b50919050565b7f4e487b7100000000000000000000000000000000000000000000000000000000600052601160045260246000fd5b6000611b5b8261134c565b9150611b668361134c565b9250827fffffffffffffffffffffffffffffffffffffffffffffffffffffffffffffffff03821115611b9b57611b9a611b21565b5b828201905092915050565b7f4d696e696d756d20646561646c696e6520666f7220612063616d7061696e206960008201527f7320372064617973000000000000000000000000000000000000000000000000602082015250565b6000611c0260288361140a565b9150611c0d82611ba6565b604082019050919050565b60006020820190508181036000830152611c3181611bf5565b9050919050565b6000611c438261134c565b9150611c4e8361134c565b925082821015611c6157611c60611b21565b5b828203905092915050565b600060a082019050611c8160008301886113af565b611c8e60208301876113f0565b8181036040830152611ca0818661145f565b9050611caf60608301856113af565b611cbc60808301846113af565b9695505050505050565b6000611cd18261134c565b91507fffffffffffffffffffffffffffffffffffffffffffffffffffffffffffffffff821415611d0457611d03611b21565b5b600182019050919050565b7f4e487b7100000000000000000000000000000000000000000000000000000000600052603260045260246000fd5b6000819050919050565b6000611d5382611d3e565b9150611d5e83611d3e565b9250827f800000000000000000000000000000000000000000000000000000000000000001821260008412151615611d9957611d98611b21565b5b827f7fffffffffffffffffffffffffffffffffffffffffffffffffffffffffffffff018213600084121615611dd157611dd0611b21565b5b828203905092915050565b7f43616d706169676e20776974682074686520676976656e20696e64657820776160008201527f736e277420726567697374657265640000000000000000000000000000000000602082015250565b6000611e38602f8361140a565b9150611e4382611ddc565b604082019050919050565b60006020820190508181036000830152611e6781611e2b565b9050919050565b7f43616d706169676e20697320656974686572207374696c6c20696e2070726f6760008201527f72657373206f7220686164207265616368656420697420676f616c0000000000602082015250565b6000611eca603b8361140a565b9150611ed582611e6e565b604082019050919050565b60006020820190508181036000830152611ef981611ebd565b9050919050565b7f596f752068617665206e6f2066756e6473206c6f636b656420696e207468697360008201527f2063616d706169676e0000000000000000000000000000000000000000000000602082015250565b6000611f5c60298361140a565b9150611f6782611f00565b604082019050919050565b60006020820190508181036000830152611f8b81611f4f565b9050919050565b6000606082019050611fa760008301866113af565b611fb460208301856113f0565b611fc160408301846113af565b949350505050565b7f43616d706169676e206973206e6f7420696e2070726f67726573730000000000600082015250565b6000611fff601b8361140a565b915061200a82611fc9565b602082019050919050565b6000602082019050818103600083015261202e81611ff2565b9050919050565b7f596f752063616e6e6f742066756e6420796f7572206f776e2063616d7061696760008201527f6e00000000000000000000000000000000000000000000000000000000000000602082015250565b600061209160218361140a565b915061209c82612035565b604082019050919050565b600060208201905081810360008301526120c081612084565b9050919050565b7f596f75277265206e6f742074686520617574686f72206f66207468697320636160008201527f6d706169676e0000000000000000000000000000000000000000000000000000602082015250565b600061212360268361140a565b915061212e826120c7565b604082019050919050565b6000602082019050818103600083015261215281612116565b9050919050565b7f46756e647320617265206e6f7420726561647920746f2077697468647261772060008201527f7965740000000000000000000000000000000000000000000000000000000000602082015250565b60006121b560238361140a565b91506121c082612159565b604082019050919050565b600060208201905081810360008301526121e4816121a8565b9050919050565b7f4e487b7100000000000000000000000000000000000000000000000000000000600052601260045260246000fd5b60006122258261134c565b91506122308361134c565b9250826122405761223f6121eb565b5b82820690509291505056fea264697066735822122059dc3a4416b943552fb1fb0cffc17eea2bd4bbfc7a160eae8ead43e24151cb9764736f6c63430008090033",
  "linkReferences": {},
  "deployedLinkReferences": {}
}